{
  "_format": "hh-sol-artifact-1",
  "contractName": "KnowledgeTest",
  "sourceName": "contracts/KnowledgeTest.sol",
  "abi": [
    {
      "inputs": [],
      "stateMutability": "payable",
      "type": "constructor"
    },
    {
      "inputs": [],
      "name": "changeTokens",
      "outputs": [],
      "stateMutability": "nonpayable",
      "type": "function"
    },
    {
      "inputs": [
        {
          "internalType": "string",
          "name": "_string1",
          "type": "string"
        },
        {
          "internalType": "string",
          "name": "_string2",
          "type": "string"
        }
      ],
      "name": "concatenate",
      "outputs": [
        {
          "internalType": "string",
          "name": "",
          "type": "string"
        }
      ],
      "stateMutability": "pure",
      "type": "function"
    },
    {
      "inputs": [],
      "name": "getBalance",
      "outputs": [
        {
          "internalType": "uint256",
          "name": "",
          "type": "uint256"
        }
      ],
      "stateMutability": "view",
      "type": "function"
    },
    {
      "inputs": [],
      "name": "owner",
      "outputs": [
        {
          "internalType": "address",
          "name": "",
          "type": "address"
        }
      ],
      "stateMutability": "view",
      "type": "function"
    },
    {
      "inputs": [
        {
          "internalType": "uint256",
          "name": "",
          "type": "uint256"
        }
      ],
      "name": "players",
      "outputs": [
        {
          "internalType": "address",
          "name": "",
          "type": "address"
        }
      ],
      "stateMutability": "view",
      "type": "function"
    },
    {
      "inputs": [],
      "name": "start",
      "outputs": [],
      "stateMutability": "nonpayable",
      "type": "function"
    },
    {
      "inputs": [
        {
          "internalType": "uint256",
          "name": "",
          "type": "uint256"
        }
      ],
      "name": "tokens",
      "outputs": [
        {
          "internalType": "string",
          "name": "",
          "type": "string"
        }
      ],
      "stateMutability": "view",
      "type": "function"
    },
    {
      "inputs": [
        {
          "internalType": "address payable",
          "name": "_address",
          "type": "address"
        }
      ],
      "name": "transferAll",
      "outputs": [],
      "stateMutability": "nonpayable",
      "type": "function"
    },
    {
      "stateMutability": "payable",
      "type": "receive"
    }
  ],
  "bytecode": "0x608060405260405180604001604052806040518060400160405280600381526020017f425443000000000000000000000000000000000000000000000000000000000081525081526020016040518060400160405280600381526020017f4554480000000000000000000000000000000000000000000000000000000000815250815250600190600262000095929190620000dc565b50336000806101000a81548173ffffffffffffffffffffffffffffffffffffffff021916908373ffffffffffffffffffffffffffffffffffffffff160217905550620002c5565b82805482825590600052602060002090810192821562000130579160200282015b828111156200012f5782518290805190602001906200011e92919062000143565b5091602001919060010190620000fd565b5b5090506200013f9190620001d4565b5090565b828054620001519062000290565b90600052602060002090601f016020900481019282620001755760008555620001c1565b82601f106200019057805160ff1916838001178555620001c1565b82800160010185558215620001c1579182015b82811115620001c0578251825591602001919060010190620001a3565b5b509050620001d09190620001fc565b5090565b5b80821115620001f85760008181620001ee91906200021b565b50600101620001d5565b5090565b5b8082111562000217576000816000905550600101620001fd565b5090565b508054620002299062000290565b6000825580601f106200023d57506200025e565b601f0160209004906000526020600020908101906200025d9190620001fc565b5b50565b7f4e487b7100000000000000000000000000000000000000000000000000000000600052602260045260246000fd5b60006002820490506001821680620002a957607f821691505b602082108103620002bf57620002be62000261565b5b50919050565b610ade80620002d56000396000f3fe60806040526004361061007f5760003560e01c8063a3a7e7f31161004e578063a3a7e7f31461015b578063a9a51f8914610184578063be9a65551461019b578063f71d96cb146101b257610086565b806312065fe01461008b578063266001d3146100b65780634f64b2be146100f35780638da5cb5b1461013057610086565b3661008657005b600080fd5b34801561009757600080fd5b506100a06101ef565b6040516100ad9190610596565b60405180910390f35b3480156100c257600080fd5b506100dd60048036038101906100d8919061070b565b6101f7565b6040516100ea919061080b565b60405180910390f35b3480156100ff57600080fd5b5061011a60048036038101906101159190610859565b610223565b604051610127919061080b565b60405180910390f35b34801561013c57600080fd5b506101456102cf565b60405161015291906108c7565b60405180910390f35b34801561016757600080fd5b50610182600480360381019061017d9190610920565b6102f3565b005b34801561019057600080fd5b506101996103cb565b005b3480156101a757600080fd5b506101b0610436565b005b3480156101be57600080fd5b506101d960048036038101906101d49190610859565b61049b565b6040516101e691906108c7565b60405180910390f35b600047905090565b6060828260405160200161020c929190610989565b604051602081830303815290604052905092915050565b6001818154811061023357600080fd5b90600052602060002001600091509050805461024e906109dc565b80601f016020809104026020016040519081016040528092919081815260200182805461027a906109dc565b80156102c75780601f1061029c576101008083540402835291602001916102c7565b820191906000526020600020905b8154815290600101906020018083116102aa57829003601f168201915b505050505081565b60008054906101000a900473ffffffffffffffffffffffffffffffffffffffff1681565b60008054906101000a900473ffffffffffffffffffffffffffffffffffffffff1673ffffffffffffffffffffffffffffffffffffffff163373ffffffffffffffffffffffffffffffffffffffff1614610381576040517f08c379a000000000000000000000000000000000000000000000000000000000815260040161037890610a59565b60405180910390fd5b8073ffffffffffffffffffffffffffffffffffffffff166108fc479081150290604051600060405180830381858888f193505050501580156103c7573d6000803e3d6000fd5b5050565b6040518060400160405280600381526020017f5645540000000000000000000000000000000000000000000000000000000000815250600160008154811061041657610415610a79565b5b9060005260206000200190805190602001906104339291906104da565b50565b6002339080600181540180825580915050600190039060005260206000200160009091909190916101000a81548173ffffffffffffffffffffffffffffffffffffffff021916908373ffffffffffffffffffffffffffffffffffffffff160217905550565b600281815481106104ab57600080fd5b906000526020600020016000915054906101000a900473ffffffffffffffffffffffffffffffffffffffff1681565b8280546104e6906109dc565b90600052602060002090601f016020900481019282610508576000855561054f565b82601f1061052157805160ff191683800117855561054f565b8280016001018555821561054f579182015b8281111561054e578251825591602001919060010190610533565b5b50905061055c9190610560565b5090565b5b80821115610579576000816000905550600101610561565b5090565b6000819050919050565b6105908161057d565b82525050565b60006020820190506105ab6000830184610587565b92915050565b6000604051905090565b600080fd5b600080fd5b600080fd5b600080fd5b6000601f19601f8301169050919050565b7f4e487b7100000000000000000000000000000000000000000000000000000000600052604160045260246000fd5b610618826105cf565b810181811067ffffffffffffffff82111715610637576106366105e0565b5b80604052505050565b600061064a6105b1565b9050610656828261060f565b919050565b600067ffffffffffffffff821115610676576106756105e0565b5b61067f826105cf565b9050602081019050919050565b82818337600083830152505050565b60006106ae6106a98461065b565b610640565b9050828152602081018484840111156106ca576106c96105ca565b5b6106d584828561068c565b509392505050565b600082601f8301126106f2576106f16105c5565b5b813561070284826020860161069b565b91505092915050565b60008060408385031215610722576107216105bb565b5b600083013567ffffffffffffffff8111156107405761073f6105c0565b5b61074c858286016106dd565b925050602083013567ffffffffffffffff81111561076d5761076c6105c0565b5b610779858286016106dd565b9150509250929050565b600081519050919050565b600082825260208201905092915050565b60005b838110156107bd5780820151818401526020810190506107a2565b838111156107cc576000848401525b50505050565b60006107dd82610783565b6107e7818561078e565b93506107f781856020860161079f565b610800816105cf565b840191505092915050565b6000602082019050818103600083015261082581846107d2565b905092915050565b6108368161057d565b811461084157600080fd5b50565b6000813590506108538161082d565b92915050565b60006020828403121561086f5761086e6105bb565b5b600061087d84828501610844565b91505092915050565b600073ffffffffffffffffffffffffffffffffffffffff82169050919050565b60006108b182610886565b9050919050565b6108c1816108a6565b82525050565b60006020820190506108dc60008301846108b8565b92915050565b60006108ed82610886565b9050919050565b6108fd816108e2565b811461090857600080fd5b50565b60008135905061091a816108f4565b92915050565b600060208284031215610936576109356105bb565b5b60006109448482850161090b565b91505092915050565b600081905092915050565b600061096382610783565b61096d818561094d565b935061097d81856020860161079f565b80840191505092915050565b60006109958285610958565b91506109a18284610958565b91508190509392505050565b7f4e487b7100000000000000000000000000000000000000000000000000000000600052602260045260246000fd5b600060028204905060018216806109f457607f821691505b602082108103610a0757610a066109ad565b5b50919050565b7f4f4e4c595f4f574e455200000000000000000000000000000000000000000000600082015250565b6000610a43600a8361078e565b9150610a4e82610a0d565b602082019050919050565b60006020820190508181036000830152610a7281610a36565b9050919050565b7f4e487b7100000000000000000000000000000000000000000000000000000000600052603260045260246000fdfea26469706673582212208e27dabb836f7f9f3e8b4eda0cf31d596b7a5899c0212c3488f1883e2a15f25e64736f6c634300080d0033",
  "linkReferences": {},
  "deployedLinkReferences": {}
}