{
  "_format": "hh-sol-artifact-1",
  "contractName": "Lottery",
  "sourceName": "contracts/Lottery.sol",
  "abi": [
    {
      "inputs": [],
      "stateMutability": "nonpayable",
      "type": "constructor"
    },
    {
      "inputs": [
        {
          "internalType": "uint256",
          "name": "",
          "type": "uint256"
        }
      ],
      "name": "gameWinners",
      "outputs": [
        {
          "internalType": "address",
          "name": "",
          "type": "address"
        }
      ],
      "stateMutability": "view",
      "type": "function"
    },
    {
      "inputs": [],
      "name": "getBalance",
      "outputs": [
        {
          "internalType": "uint256",
          "name": "",
          "type": "uint256"
        }
      ],
      "stateMutability": "view",
      "type": "function"
    },
    {
      "inputs": [],
      "name": "owner",
      "outputs": [
        {
          "internalType": "address",
          "name": "",
          "type": "address"
        }
      ],
      "stateMutability": "view",
      "type": "function"
    },
    {
      "inputs": [],
      "name": "pickWinner",
      "outputs": [],
      "stateMutability": "nonpayable",
      "type": "function"
    },
    {
      "inputs": [
        {
          "internalType": "uint256",
          "name": "",
          "type": "uint256"
        }
      ],
      "name": "players",
      "outputs": [
        {
          "internalType": "address",
          "name": "",
          "type": "address"
        }
      ],
      "stateMutability": "view",
      "type": "function"
    },
    {
      "stateMutability": "payable",
      "type": "receive"
    }
  ],
  "bytecode": "0x608060405234801561001057600080fd5b5033600260006101000a81548173ffffffffffffffffffffffffffffffffffffffff021916908373ffffffffffffffffffffffffffffffffffffffff160217905550610857806100616000396000f3fe60806040526004361061004e5760003560e01c806312065fe0146100ca5780635d495aea146100f55780637bdd449c1461010c5780638da5cb5b14610149578063f71d96cb14610174576100c5565b366100c557600034101561006157600080fd5b6000339080600181540180825580915050600190039060005260206000200160009091909190916101000a81548173ffffffffffffffffffffffffffffffffffffffff021916908373ffffffffffffffffffffffffffffffffffffffff1602179055005b600080fd5b3480156100d657600080fd5b506100df6101b1565b6040516100ec9190610576565b60405180910390f35b34801561010157600080fd5b5061010a610249565b005b34801561011857600080fd5b50610133600480360381019061012e91906105c2565b610441565b6040516101409190610630565b60405180910390f35b34801561015557600080fd5b5061015e610480565b60405161016b9190610630565b60405180910390f35b34801561018057600080fd5b5061019b600480360381019061019691906105c2565b6104a6565b6040516101a89190610630565b60405180910390f35b6000600260009054906101000a900473ffffffffffffffffffffffffffffffffffffffff1673ffffffffffffffffffffffffffffffffffffffff163373ffffffffffffffffffffffffffffffffffffffff1614610243576040517f08c379a000000000000000000000000000000000000000000000000000000000815260040161023a906106a8565b60405180910390fd5b47905090565b600260009054906101000a900473ffffffffffffffffffffffffffffffffffffffff1673ffffffffffffffffffffffffffffffffffffffff163373ffffffffffffffffffffffffffffffffffffffff16146102d9576040517f08c379a00000000000000000000000000000000000000000000000000000000081526004016102d0906106a8565b60405180910390fd5b60036000805490501015610322576040517f08c379a000000000000000000000000000000000000000000000000000000000815260040161031990610714565b60405180910390fd5b600061032c6104e5565b9050600080600080549050836103429190610763565b90506000818154811061035857610357610794565b5b9060005260206000200160009054906101000a900473ffffffffffffffffffffffffffffffffffffffff1691506001829080600181540180825580915050600190039060005260206000200160009091909190916101000a81548173ffffffffffffffffffffffffffffffffffffffff021916908373ffffffffffffffffffffffffffffffffffffffff1602179055506000806103f5919061051f565b8173ffffffffffffffffffffffffffffffffffffffff166108fc479081150290604051600060405180830381858888f1935050505015801561043b573d6000803e3d6000fd5b50505050565b6001818154811061045157600080fd5b906000526020600020016000915054906101000a900473ffffffffffffffffffffffffffffffffffffffff1681565b600260009054906101000a900473ffffffffffffffffffffffffffffffffffffffff1681565b600081815481106104b657600080fd5b906000526020600020016000915054906101000a900473ffffffffffffffffffffffffffffffffffffffff1681565b60004442600080549050604051602001610501939291906107e4565b6040516020818303038152906040528051906020012060001c905090565b508054600082559060005260206000209081019061053d9190610540565b50565b5b80821115610559576000816000905550600101610541565b5090565b6000819050919050565b6105708161055d565b82525050565b600060208201905061058b6000830184610567565b92915050565b600080fd5b61059f8161055d565b81146105aa57600080fd5b50565b6000813590506105bc81610596565b92915050565b6000602082840312156105d8576105d7610591565b5b60006105e6848285016105ad565b91505092915050565b600073ffffffffffffffffffffffffffffffffffffffff82169050919050565b600061061a826105ef565b9050919050565b61062a8161060f565b82525050565b60006020820190506106456000830184610621565b92915050565b600082825260208201905092915050565b7f4f4e4c595f4f574e455200000000000000000000000000000000000000000000600082015250565b6000610692600a8361064b565b915061069d8261065c565b602082019050919050565b600060208201905081810360008301526106c181610685565b9050919050565b7f4e4f545f454e4f5547485f504c41594552530000000000000000000000000000600082015250565b60006106fe60128361064b565b9150610709826106c8565b602082019050919050565b6000602082019050818103600083015261072d816106f1565b9050919050565b7f4e487b7100000000000000000000000000000000000000000000000000000000600052601260045260246000fd5b600061076e8261055d565b91506107798361055d565b92508261078957610788610734565b5b828206905092915050565b7f4e487b7100000000000000000000000000000000000000000000000000000000600052603260045260246000fd5b6000819050919050565b6107de6107d98261055d565b6107c3565b82525050565b60006107f082866107cd565b60208201915061080082856107cd565b60208201915061081082846107cd565b60208201915081905094935050505056fea2646970667358221220a6492046c70a6d28ff8be0fc78a0beb10e770d30c209d2a2a8f6b06cd316d83964736f6c634300080d0033",
  "linkReferences": {},
  "deployedLinkReferences": {}
}